{
  "_format": "hh-sol-artifact-1",
  "contractName": "CrowdFunding",
  "sourceName": "contracts/CrowdFunding.sol",
  "abi": [
    {
      "inputs": [
        {
          "internalType": "uint256",
          "name": "",
          "type": "uint256"
        }
      ],
      "name": "campaigns",
      "outputs": [
        {
          "internalType": "address",
          "name": "owner",
          "type": "address"
        },
        {
          "internalType": "string",
          "name": "title",
          "type": "string"
        },
        {
          "internalType": "string",
          "name": "description",
          "type": "string"
        },
        {
          "internalType": "uint256",
          "name": "target",
          "type": "uint256"
        },
        {
          "internalType": "uint256",
          "name": "deadline",
          "type": "uint256"
        },
        {
          "internalType": "uint256",
          "name": "amountCollected",
          "type": "uint256"
        },
        {
          "internalType": "string",
          "name": "image",
          "type": "string"
        }
      ],
      "stateMutability": "view",
      "type": "function"
    },
    {
      "inputs": [
        {
          "internalType": "address",
          "name": "_owner",
          "type": "address"
        },
        {
          "internalType": "string",
          "name": "_title",
          "type": "string"
        },
        {
          "internalType": "string",
          "name": "_description",
          "type": "string"
        },
        {
          "internalType": "uint256",
          "name": "_target",
          "type": "uint256"
        },
        {
          "internalType": "uint256",
          "name": "_deadline",
          "type": "uint256"
        },
        {
          "internalType": "string",
          "name": "_image",
          "type": "string"
        }
      ],
      "name": "createCampaign",
      "outputs": [
        {
          "internalType": "uint256",
          "name": "",
          "type": "uint256"
        }
      ],
      "stateMutability": "nonpayable",
      "type": "function"
    },
    {
      "inputs": [
        {
          "internalType": "uint256",
          "name": "_id",
          "type": "uint256"
        }
      ],
      "name": "donateToCampaign",
      "outputs": [],
      "stateMutability": "payable",
      "type": "function"
    },
    {
      "inputs": [
        {
          "internalType": "address",
          "name": "",
          "type": "address"
        },
        {
          "internalType": "uint256",
          "name": "",
          "type": "uint256"
        }
      ],
      "name": "donatedCampaigns",
      "outputs": [
        {
          "internalType": "uint256",
          "name": "",
          "type": "uint256"
        }
      ],
      "stateMutability": "view",
      "type": "function"
    },
    {
      "inputs": [
        {
          "internalType": "uint256",
          "name": "_id",
          "type": "uint256"
        }
      ],
      "name": "getCampaign",
      "outputs": [
        {
          "internalType": "address",
          "name": "",
          "type": "address"
        },
        {
          "internalType": "string",
          "name": "",
          "type": "string"
        },
        {
          "internalType": "string",
          "name": "",
          "type": "string"
        },
        {
          "internalType": "uint256",
          "name": "",
          "type": "uint256"
        },
        {
          "internalType": "uint256",
          "name": "",
          "type": "uint256"
        },
        {
          "internalType": "uint256",
          "name": "",
          "type": "uint256"
        },
        {
          "internalType": "string",
          "name": "",
          "type": "string"
        }
      ],
      "stateMutability": "view",
      "type": "function"
    },
    {
      "inputs": [],
      "name": "getCampaigns",
      "outputs": [
        {
          "components": [
            {
              "internalType": "address",
              "name": "owner",
              "type": "address"
            },
            {
              "internalType": "string",
              "name": "title",
              "type": "string"
            },
            {
              "internalType": "string",
              "name": "description",
              "type": "string"
            },
            {
              "internalType": "uint256",
              "name": "target",
              "type": "uint256"
            },
            {
              "internalType": "uint256",
              "name": "deadline",
              "type": "uint256"
            },
            {
              "internalType": "uint256",
              "name": "amountCollected",
              "type": "uint256"
            },
            {
              "internalType": "string",
              "name": "image",
              "type": "string"
            },
            {
              "internalType": "address[]",
              "name": "donators",
              "type": "address[]"
            },
            {
              "internalType": "uint256[]",
              "name": "donations",
              "type": "uint256[]"
            }
          ],
          "internalType": "struct CrowdFunding.Campaign[]",
          "name": "",
          "type": "tuple[]"
        }
      ],
      "stateMutability": "view",
      "type": "function"
    },
    {
      "inputs": [
        {
          "internalType": "address",
          "name": "_owner",
          "type": "address"
        }
      ],
      "name": "getCampaignsByOwner",
      "outputs": [
        {
          "components": [
            {
              "internalType": "address",
              "name": "owner",
              "type": "address"
            },
            {
              "internalType": "string",
              "name": "title",
              "type": "string"
            },
            {
              "internalType": "string",
              "name": "description",
              "type": "string"
            },
            {
              "internalType": "uint256",
              "name": "target",
              "type": "uint256"
            },
            {
              "internalType": "uint256",
              "name": "deadline",
              "type": "uint256"
            },
            {
              "internalType": "uint256",
              "name": "amountCollected",
              "type": "uint256"
            },
            {
              "internalType": "string",
              "name": "image",
              "type": "string"
            },
            {
              "internalType": "address[]",
              "name": "donators",
              "type": "address[]"
            },
            {
              "internalType": "uint256[]",
              "name": "donations",
              "type": "uint256[]"
            }
          ],
          "internalType": "struct CrowdFunding.Campaign[]",
          "name": "",
          "type": "tuple[]"
        }
      ],
      "stateMutability": "view",
      "type": "function"
    },
    {
      "inputs": [],
      "name": "getDonatedCampaigns",
      "outputs": [
        {
          "components": [
            {
              "internalType": "address",
              "name": "owner",
              "type": "address"
            },
            {
              "internalType": "string",
              "name": "title",
              "type": "string"
            },
            {
              "internalType": "string",
              "name": "description",
              "type": "string"
            },
            {
              "internalType": "uint256",
              "name": "target",
              "type": "uint256"
            },
            {
              "internalType": "uint256",
              "name": "deadline",
              "type": "uint256"
            },
            {
              "internalType": "uint256",
              "name": "amountCollected",
              "type": "uint256"
            },
            {
              "internalType": "string",
              "name": "image",
              "type": "string"
            },
            {
              "internalType": "address[]",
              "name": "donators",
              "type": "address[]"
            },
            {
              "internalType": "uint256[]",
              "name": "donations",
              "type": "uint256[]"
            }
          ],
          "internalType": "struct CrowdFunding.Campaign[]",
          "name": "",
          "type": "tuple[]"
        }
      ],
      "stateMutability": "view",
      "type": "function"
    },
    {
      "inputs": [
        {
          "internalType": "uint256",
          "name": "_id",
          "type": "uint256"
        }
      ],
      "name": "getDonators",
      "outputs": [
        {
          "internalType": "address[]",
          "name": "",
          "type": "address[]"
        },
        {
          "internalType": "uint256[]",
          "name": "",
          "type": "uint256[]"
        }
      ],
      "stateMutability": "view",
      "type": "function"
    },
    {
      "inputs": [],
      "name": "numberOfCampaigns",
      "outputs": [
        {
          "internalType": "uint256",
          "name": "",
          "type": "uint256"
        }
      ],
      "stateMutability": "view",
      "type": "function"
    }
  ],
  "bytecode": "0x6080604052600060025534801561001557600080fd5b506126ce806100256000396000f3fe6080604052600436106100915760003560e01c806351bdebb91161005957806351bdebb9146101895780635598f8cc146101c65780639943e3a114610209578063a6b0363314610246578063e6160c111461027157610091565b806307ca140d146100965780630fa91fa9146100c1578063141961bc146100ff5780633494daee1461014257806342a4fda81461016d575b600080fd5b3480156100a257600080fd5b506100ab6102ae565b6040516100b891906118a8565b60405180910390f35b3480156100cd57600080fd5b506100e860048036038101906100e39190611903565b6102b4565b6040516100f6929190611ade565b60405180910390f35b34801561010b57600080fd5b5061012660048036038101906101219190611903565b6103c4565b6040516101399796959493929190611bb4565b60405180910390f35b34801561014e57600080fd5b506101576105be565b6040516101649190611f03565b60405180910390f35b61018760048036038101906101829190611903565b610a39565b005b34801561019557600080fd5b506101b060048036038101906101ab9190611f51565b610bf9565b6040516101bd9190611f03565b60405180910390f35b3480156101d257600080fd5b506101ed60048036038101906101e89190611903565b6110e2565b6040516102009796959493929190611bb4565b60405180910390f35b34801561021557600080fd5b50610230600480360381019061022b91906120b3565b611302565b60405161023d91906118a8565b60405180910390f35b34801561025257600080fd5b5061025b611426565b6040516102689190611f03565b60405180910390f35b34801561027d57600080fd5b5061029860048036038101906102939190612194565b6117fc565b6040516102a591906118a8565b60405180910390f35b60025481565b6060806000808481526020019081526020016000206007016000808581526020019081526020016000206008018180548060200260200160405190810160405280929190818152602001828054801561036257602002820191906000526020600020905b8160009054906101000a900473ffffffffffffffffffffffffffffffffffffffff1673ffffffffffffffffffffffffffffffffffffffff1681526020019060010190808311610318575b50505050509150808054806020026020016040519081016040528092919081815260200182805480156103b457602002820191906000526020600020905b8154815260200190600101908083116103a0575b5050505050905091509150915091565b60006020528060005260406000206000915090508060000160009054906101000a900473ffffffffffffffffffffffffffffffffffffffff169080600101805461040d90612203565b80601f016020809104026020016040519081016040528092919081815260200182805461043990612203565b80156104865780601f1061045b57610100808354040283529160200191610486565b820191906000526020600020905b81548152906001019060200180831161046957829003601f168201915b50505050509080600201805461049b90612203565b80601f01602080910402602001604051908101604052809291908181526020018280546104c790612203565b80156105145780601f106104e957610100808354040283529160200191610514565b820191906000526020600020905b8154815290600101906020018083116104f757829003601f168201915b50505050509080600301549080600401549080600501549080600601805461053b90612203565b80601f016020809104026020016040519081016040528092919081815260200182805461056790612203565b80156105b45780601f10610589576101008083540402835291602001916105b4565b820191906000526020600020905b81548152906001019060200180831161059757829003601f168201915b5050505050905087565b60606000600160003373ffffffffffffffffffffffffffffffffffffffff1673ffffffffffffffffffffffffffffffffffffffff16815260200190815260200160002080548060200260200160405190810160405280929190818152602001828054801561064b57602002820191906000526020600020905b815481526020019060010190808311610637575b505050505090506000815167ffffffffffffffff81111561066f5761066e611f88565b5b6040519080825280602002602001820160405280156106a857816020015b61069561182d565b81526020019060019003908161068d5790505b50905060005b8251811015610a30576000808483815181106106cd576106cc612234565b5b60200260200101518152602001908152602001600020604051806101200160405290816000820160009054906101000a900473ffffffffffffffffffffffffffffffffffffffff1673ffffffffffffffffffffffffffffffffffffffff1673ffffffffffffffffffffffffffffffffffffffff16815260200160018201805461075590612203565b80601f016020809104026020016040519081016040528092919081815260200182805461078190612203565b80156107ce5780601f106107a3576101008083540402835291602001916107ce565b820191906000526020600020905b8154815290600101906020018083116107b157829003601f168201915b505050505081526020016002820180546107e790612203565b80601f016020809104026020016040519081016040528092919081815260200182805461081390612203565b80156108605780601f1061083557610100808354040283529160200191610860565b820191906000526020600020905b81548152906001019060200180831161084357829003601f168201915b5050505050815260200160038201548152602001600482015481526020016005820154815260200160068201805461089790612203565b80601f01602080910402602001604051908101604052809291908181526020018280546108c390612203565b80156109105780601f106108e557610100808354040283529160200191610910565b820191906000526020600020905b8154815290600101906020018083116108f357829003601f168201915b505050505081526020016007820180548060200260200160405190810160405280929190818152602001828054801561099e57602002820191906000526020600020905b8160009054906101000a900473ffffffffffffffffffffffffffffffffffffffff1673ffffffffffffffffffffffffffffffffffffffff1681526020019060010190808311610954575b50505050508152602001600882018054806020026020016040519081016040528092919081815260200182805480156109f657602002820191906000526020600020905b8154815260200190600101908083116109e2575b505050505081525050828281518110610a1257610a11612234565b5b60200260200101819052508080610a2890612292565b9150506106ae565b50809250505090565b6000806000838152602001908152602001600020905080600701339080600181540180825580915050600190039060005260206000200160009091909190916101000a81548173ffffffffffffffffffffffffffffffffffffffff021916908373ffffffffffffffffffffffffffffffffffffffff16021790555080600801349080600181540180825580915050600190039060005260206000200160009091909190915055600160003373ffffffffffffffffffffffffffffffffffffffff1673ffffffffffffffffffffffffffffffffffffffff16815260200190815260200160002082908060018154018082558091505060019003906000526020600020016000909190919091505560008160000160009054906101000a900473ffffffffffffffffffffffffffffffffffffffff1673ffffffffffffffffffffffffffffffffffffffff1634604051610b8f9061230b565b60006040518083038185875af1925050503d8060008114610bcc576040519150601f19603f3d011682016040523d82523d6000602084013e610bd1565b606091505b505090508015610bf457348260050154610beb9190612320565b82600501819055505b505050565b60606000805b600254811015610c93578373ffffffffffffffffffffffffffffffffffffffff1660008083815260200190815260200160002060000160009054906101000a900473ffffffffffffffffffffffffffffffffffffffff1673ffffffffffffffffffffffffffffffffffffffff1603610c80578180610c7c90612292565b9250505b8080610c8b90612292565b915050610bff565b5060008167ffffffffffffffff811115610cb057610caf611f88565b5b604051908082528060200260200182016040528015610ce957816020015b610cd661182d565b815260200190600190039081610cce5790505b5090506000805b6002548110156110d6578573ffffffffffffffffffffffffffffffffffffffff1660008083815260200190815260200160002060000160009054906101000a900473ffffffffffffffffffffffffffffffffffffffff1673ffffffffffffffffffffffffffffffffffffffff16036110c3576000806000838152602001908152602001600020905080604051806101200160405290816000820160009054906101000a900473ffffffffffffffffffffffffffffffffffffffff1673ffffffffffffffffffffffffffffffffffffffff1673ffffffffffffffffffffffffffffffffffffffff168152602001600182018054610deb90612203565b80601f0160208091040260200160405190810160405280929190818152602001828054610e1790612203565b8015610e645780601f10610e3957610100808354040283529160200191610e64565b820191906000526020600020905b815481529060010190602001808311610e4757829003601f168201915b50505050508152602001600282018054610e7d90612203565b80601f0160208091040260200160405190810160405280929190818152602001828054610ea990612203565b8015610ef65780601f10610ecb57610100808354040283529160200191610ef6565b820191906000526020600020905b815481529060010190602001808311610ed957829003601f168201915b50505050508152602001600382015481526020016004820154815260200160058201548152602001600682018054610f2d90612203565b80601f0160208091040260200160405190810160405280929190818152602001828054610f5990612203565b8015610fa65780601f10610f7b57610100808354040283529160200191610fa6565b820191906000526020600020905b815481529060010190602001808311610f8957829003601f168201915b505050505081526020016007820180548060200260200160405190810160405280929190818152602001828054801561103457602002820191906000526020600020905b8160009054906101000a900473ffffffffffffffffffffffffffffffffffffffff1673ffffffffffffffffffffffffffffffffffffffff1681526020019060010190808311610fea575b505050505081526020016008820180548060200260200160405190810160405280929190818152602001828054801561108c57602002820191906000526020600020905b815481526020019060010190808311611078575b5050505050815250508484815181106110a8576110a7612234565b5b602002602001018190525082806110be90612292565b935050505b80806110ce90612292565b915050610cf0565b50819350505050919050565b60006060806000806000606060008060008a815260200190815260200160002090508060000160009054906101000a900473ffffffffffffffffffffffffffffffffffffffff1681600101826002018360030154846004015485600501548660060185805461115090612203565b80601f016020809104026020016040519081016040528092919081815260200182805461117c90612203565b80156111c95780601f1061119e576101008083540402835291602001916111c9565b820191906000526020600020905b8154815290600101906020018083116111ac57829003601f168201915b505050505095508480546111dc90612203565b80601f016020809104026020016040519081016040528092919081815260200182805461120890612203565b80156112555780601f1061122a57610100808354040283529160200191611255565b820191906000526020600020905b81548152906001019060200180831161123857829003601f168201915b5050505050945080805461126890612203565b80601f016020809104026020016040519081016040528092919081815260200182805461129490612203565b80156112e15780601f106112b6576101008083540402835291602001916112e1565b820191906000526020600020905b8154815290600101906020018083116112c457829003601f168201915b50505050509050975097509750975097509750975050919395979092949650565b6000806000806002548152602001908152602001600020905042841161135d576040517f08c379a0000000000000000000000000000000000000000000000000000000008152600401611354906123c6565b60405180910390fd5b878160000160006101000a81548173ffffffffffffffffffffffffffffffffffffffff021916908373ffffffffffffffffffffffffffffffffffffffff160217905550868160010190816113b19190612592565b50858160020190816113c39190612592565b5084816003018190555083816004018190555060008160050181905550828160060190816113f19190612592565b506002600081548092919061140590612292565b919050555060016002546114199190612664565b9150509695505050505050565b6060600060025467ffffffffffffffff81111561144657611445611f88565b5b60405190808252806020026020018201604052801561147f57816020015b61146c61182d565b8152602001906001900390816114645790505b50905060005b6002548110156117f4576000806000838152602001908152602001600020905080604051806101200160405290816000820160009054906101000a900473ffffffffffffffffffffffffffffffffffffffff1673ffffffffffffffffffffffffffffffffffffffff1673ffffffffffffffffffffffffffffffffffffffff16815260200160018201805461151890612203565b80601f016020809104026020016040519081016040528092919081815260200182805461154490612203565b80156115915780601f1061156657610100808354040283529160200191611591565b820191906000526020600020905b81548152906001019060200180831161157457829003601f168201915b505050505081526020016002820180546115aa90612203565b80601f01602080910402602001604051908101604052809291908181526020018280546115d690612203565b80156116235780601f106115f857610100808354040283529160200191611623565b820191906000526020600020905b81548152906001019060200180831161160657829003601f168201915b5050505050815260200160038201548152602001600482015481526020016005820154815260200160068201805461165a90612203565b80601f016020809104026020016040519081016040528092919081815260200182805461168690612203565b80156116d35780601f106116a8576101008083540402835291602001916116d3565b820191906000526020600020905b8154815290600101906020018083116116b657829003601f168201915b505050505081526020016007820180548060200260200160405190810160405280929190818152602001828054801561176157602002820191906000526020600020905b8160009054906101000a900473ffffffffffffffffffffffffffffffffffffffff1673ffffffffffffffffffffffffffffffffffffffff1681526020019060010190808311611717575b50505050508152602001600882018054806020026020016040519081016040528092919081815260200182805480156117b957602002820191906000526020600020905b8154815260200190600101908083116117a5575b5050505050815250508383815181106117d5576117d4612234565b5b60200260200101819052505080806117ec90612292565b915050611485565b508091505090565b6001602052816000526040600020818154811061181857600080fd5b90600052602060002001600091509150505481565b604051806101200160405280600073ffffffffffffffffffffffffffffffffffffffff16815260200160608152602001606081526020016000815260200160008152602001600081526020016060815260200160608152602001606081525090565b6000819050919050565b6118a28161188f565b82525050565b60006020820190506118bd6000830184611899565b92915050565b6000604051905090565b600080fd5b600080fd5b6118e08161188f565b81146118eb57600080fd5b50565b6000813590506118fd816118d7565b92915050565b600060208284031215611919576119186118cd565b5b6000611927848285016118ee565b91505092915050565b600081519050919050565b600082825260208201905092915050565b6000819050602082019050919050565b600073ffffffffffffffffffffffffffffffffffffffff82169050919050565b60006119878261195c565b9050919050565b6119978161197c565b82525050565b60006119a9838361198e565b60208301905092915050565b6000602082019050919050565b60006119cd82611930565b6119d7818561193b565b93506119e28361194c565b8060005b83811015611a135781516119fa888261199d565b9750611a05836119b5565b9250506001810190506119e6565b5085935050505092915050565b600081519050919050565b600082825260208201905092915050565b6000819050602082019050919050565b611a558161188f565b82525050565b6000611a678383611a4c565b60208301905092915050565b6000602082019050919050565b6000611a8b82611a20565b611a958185611a2b565b9350611aa083611a3c565b8060005b83811015611ad1578151611ab88882611a5b565b9750611ac383611a73565b925050600181019050611aa4565b5085935050505092915050565b60006040820190508181036000830152611af881856119c2565b90508181036020830152611b0c8184611a80565b90509392505050565b611b1e8161197c565b82525050565b600081519050919050565b600082825260208201905092915050565b60005b83811015611b5e578082015181840152602081019050611b43565b60008484015250505050565b6000601f19601f8301169050919050565b6000611b8682611b24565b611b908185611b2f565b9350611ba0818560208601611b40565b611ba981611b6a565b840191505092915050565b600060e082019050611bc9600083018a611b15565b8181036020830152611bdb8189611b7b565b90508181036040830152611bef8188611b7b565b9050611bfe6060830187611899565b611c0b6080830186611899565b611c1860a0830185611899565b81810360c0830152611c2a8184611b7b565b905098975050505050505050565b600081519050919050565b600082825260208201905092915050565b6000819050602082019050919050565b600082825260208201905092915050565b6000611c8082611b24565b611c8a8185611c64565b9350611c9a818560208601611b40565b611ca381611b6a565b840191505092915050565b600082825260208201905092915050565b6000611cca82611930565b611cd48185611cae565b9350611cdf8361194c565b8060005b83811015611d10578151611cf7888261199d565b9750611d02836119b5565b925050600181019050611ce3565b5085935050505092915050565b600082825260208201905092915050565b6000611d3982611a20565b611d438185611d1d565b9350611d4e83611a3c565b8060005b83811015611d7f578151611d668882611a5b565b9750611d7183611a73565b925050600181019050611d52565b5085935050505092915050565b600061012083016000830151611da5600086018261198e565b5060208301518482036020860152611dbd8282611c75565b91505060408301518482036040860152611dd78282611c75565b9150506060830151611dec6060860182611a4c565b506080830151611dff6080860182611a4c565b5060a0830151611e1260a0860182611a4c565b5060c083015184820360c0860152611e2a8282611c75565b91505060e083015184820360e0860152611e448282611cbf565b915050610100830151848203610100860152611e608282611d2e565b9150508091505092915050565b6000611e798383611d8c565b905092915050565b6000602082019050919050565b6000611e9982611c38565b611ea38185611c43565b935083602082028501611eb585611c54565b8060005b85811015611ef15784840389528151611ed28582611e6d565b9450611edd83611e81565b925060208a01995050600181019050611eb9565b50829750879550505050505092915050565b60006020820190508181036000830152611f1d8184611e8e565b905092915050565b611f2e8161197c565b8114611f3957600080fd5b50565b600081359050611f4b81611f25565b92915050565b600060208284031215611f6757611f666118cd565b5b6000611f7584828501611f3c565b91505092915050565b600080fd5b600080fd5b7f4e487b7100000000000000000000000000000000000000000000000000000000600052604160045260246000fd5b611fc082611b6a565b810181811067ffffffffffffffff82111715611fdf57611fde611f88565b5b80604052505050565b6000611ff26118c3565b9050611ffe8282611fb7565b919050565b600067ffffffffffffffff82111561201e5761201d611f88565b5b61202782611b6a565b9050602081019050919050565b82818337600083830152505050565b600061205661205184612003565b611fe8565b90508281526020810184848401111561207257612071611f83565b5b61207d848285612034565b509392505050565b600082601f83011261209a57612099611f7e565b5b81356120aa848260208601612043565b91505092915050565b60008060008060008060c087890312156120d0576120cf6118cd565b5b60006120de89828a01611f3c565b965050602087013567ffffffffffffffff8111156120ff576120fe6118d2565b5b61210b89828a01612085565b955050604087013567ffffffffffffffff81111561212c5761212b6118d2565b5b61213889828a01612085565b945050606061214989828a016118ee565b935050608061215a89828a016118ee565b92505060a087013567ffffffffffffffff81111561217b5761217a6118d2565b5b61218789828a01612085565b9150509295509295509295565b600080604083850312156121ab576121aa6118cd565b5b60006121b985828601611f3c565b92505060206121ca858286016118ee565b9150509250929050565b7f4e487b7100000000000000000000000000000000000000000000000000000000600052602260045260246000fd5b6000600282049050600182168061221b57607f821691505b60208210810361222e5761222d6121d4565b5b50919050565b7f4e487b7100000000000000000000000000000000000000000000000000000000600052603260045260246000fd5b7f4e487b7100000000000000000000000000000000000000000000000000000000600052601160045260246000fd5b600061229d8261188f565b91507fffffffffffffffffffffffffffffffffffffffffffffffffffffffffffffffff82036122cf576122ce612263565b5b600182019050919050565b600081905092915050565b50565b60006122f56000836122da565b9150612300826122e5565b600082019050919050565b6000612316826122e8565b9150819050919050565b600061232b8261188f565b91506123368361188f565b925082820190508082111561234e5761234d612263565b5b92915050565b7f54686520646561646c696e652073686f756c642062652061206461746520696e60008201527f20746865206675747572652e0000000000000000000000000000000000000000602082015250565b60006123b0602c83611b2f565b91506123bb82612354565b604082019050919050565b600060208201905081810360008301526123df816123a3565b9050919050565b60008190508160005260206000209050919050565b60006020601f8301049050919050565b600082821b905092915050565b6000600883026124487fffffffffffffffffffffffffffffffffffffffffffffffffffffffffffffffff8261240b565b612452868361240b565b95508019841693508086168417925050509392505050565b6000819050919050565b600061248f61248a6124858461188f565b61246a565b61188f565b9050919050565b6000819050919050565b6124a983612474565b6124bd6124b582612496565b848454612418565b825550505050565b600090565b6124d26124c5565b6124dd8184846124a0565b505050565b5b81811015612501576124f66000826124ca565b6001810190506124e3565b5050565b601f82111561254657612517816123e6565b612520846123fb565b8101602085101561252f578190505b61254361253b856123fb565b8301826124e2565b50505b505050565b600082821c905092915050565b60006125696000198460080261254b565b1980831691505092915050565b60006125828383612558565b9150826002028217905092915050565b61259b82611b24565b67ffffffffffffffff8111156125b4576125b3611f88565b5b6125be8254612203565b6125c9828285612505565b600060209050601f8311600181146125fc57600084156125ea578287015190505b6125f48582612576565b86555061265c565b601f19841661260a866123e6565b60005b828110156126325784890151825560018201915060208501945060208101905061260d565b8683101561264f578489015161264b601f891682612558565b8355505b6001600288020188555050505b505050505050565b600061266f8261188f565b915061267a8361188f565b925082820390508181111561269257612691612263565b5b9291505056fea2646970667358221220ffbfd153717fee3b68371ae30704f4e5aa352aeca3dd166249caa8f25c080f2864736f6c63430008120033",
  "linkReferences": {},
  "deployedLinkReferences": {}
}